:100000000C94E4100C9401110C9401110C94011146
:100010000C9401110C9401110C9401110C941417FF
:100020000C9401110C9401110C9401110C94011108
:100030000C9401110C9401110C9401110C940111F8
:100040000C9401110C9401110C9401110C940111E8
:100050000C9401110C9401110C9401110C940111D8
:100060000C9401110C940111AA00000000FF000083
:10007000C6000000001C00008D00000000E200002F
:100080003800007100550000FF0000000071000002
:100090005500000000E200008D00000800AA38387A
:1000A000C6000038008D1C00FF00000000BF0000EB
:1000B0009F00000000DF00005F000000003F000024
:1000C0007F000000001F0000FF000000E5000000AE
:1000D000CC00CC0000004C00B20099003300B2000C
:1000E000B2007F0066333319000000000000001FDB
:1000F00000000000FF00001F000008000000BF9F7C
:100100007F5F5F00DF003F00FF00FF00CCCCCCCC66
:100110000000333333330000CC00CC009999999917
:100120009900000066666666FF0000002A00000075
:10013000D40000000800D400AA0000005500000010
:10014000D40008007F000800FF00550000000000F8
:10015000E20055000000C60000008D0038000000DD
:10016000AA001C000000710071003800FF000000B0
:1001700055003800E20000000000AA0000008D00D9
:100180001C001C00C6001C00FF000000DA0000007C
:100190009100000024000000DA00000024000000AC
:1001A000B600480000006D000000000008000000DC
:1001B000FF005500D4002A000000000008000000E5
:1001C0005500AA007F002A006D006D00FF000000AE
:1001D00048004800DA0000009100B600FF0000006F
:1001E00024002400DA000800FF0000007100000075
:1001F000C600380055001C00FF000000E2000000AF
:10020000AA0000008D0000000000000000000000B7
:10021000FF0091006D00DA002400B600480048009D
:10022000FF00000000006D00240024009100000089
:1002300048004800B600000048004800DA0000000E
:100240006D006D00FF000000FF0000000000DA00FC
:10025000B6000000000091009100240000006D0035
:100260006D00000048002400000000006D00080040
:1002700048000000FF00B6000000000091000800E8
:1002800024000800DA00B600FF0000000000E200D1
:10029000550000008D00000000000000AA0038009A
:1002A000C600000071001C00FF0008001C001C00BC
:1002B000C600380038005500FF005500710071007D
:1002C000E2008D00AA008D00000000000000000088
:1002D000FF0000007F0000000000000000000000A0
:1002E0003F000000BF000000FF000000FF007F0093
:1002F000000055000000D4000000D4002A00AA002D
:1003000000007F0000000000FF0000000800000067
:10031000B600000048000000DA00000024000000E1
:10032000910000006D000000000033194C19190005
:10033000990000007F66B200CC0000000000FF00C2
:1003400000006600E5004C00710000008D005500C3
:1003500000000000AA000000381CFF0000000000A0
:10036000C6000000E2000000FF00000000005F0087
:1003700000007F0000000000DF005F003F001F0062
:10038000BF0000009F00000000001F00FF000000F1
:1003900000005F00DF00000000003F00BF00000021
:1003A000000000009F007F008D001C001C001C004E
:1003B0007100080008000800FF000000E2000000D3
:1003C000C6003800AA005500FF0000000000000031
:1003D00024000000B6000000DA0000000000000069
:1003E0004800000091006D0024002400000000007F
:1003F000FF000000B6000000000000000000006DDB
:10040000DA00000091004848FF001C00E2003800BC
:10041000C600000000001C1CAA0000008D000000A7
:100420007100000055555555FF00000033000000D5
:100430000000000066000000CC00000099000000F1
:10044000000000003300000000000000080024004D
:10045000FF000000B60008000000000048006D002A
:1004600091000000FF00DA00D4000800AA0000009C
:100470007F00000055000800FF000800AA000000EF
:100480007F0000002A000800FF00000000003F007D
:10049000BF005F001F00DF00FF003F005F003F0064
:1004A0009F00000000007F004800000000000000E6
:1004B000FF00000000000000480048002400080081
:1004C000DA00B60091006D00FF00A200E700A20074
:1004D000E7007300D0008B00B9005C00B9002E006B
:1004E000A2004500A2001700FF000000FF00BF00AF
:1004F000000000005F003F001F000000DF00DF0081
:10050000000008009F007F000000550038001C001C
:10051000FF001C000000E2000000AA00380071008B
:10052000C600000071008D00FF002A00E9003F00B6
:10053000D4005500BF006A00BF001500AA000800E3
:10054000AA007F0094009400FF000000000000005B
:100550000000000000000000FF000000DA00482456
:100560000000B6000000916D00007F0000002A002E
:10057000D40000D40000D400000000002A000000D5
:10058000FF000000AAAA7F5591006D6DDA6D48004A
:1005900091004800DA006D00B6006D00FF004800D1
:1005A000B66D246DFF6D6D009100000000006D00C0
:1005B00000000000FF006D004800DA0000000000AD
:1005C00024000000B600000000007F009F007F00B4
:1005D0009F00BF00DF003F00FF005F001F005F00C3
:1005E0001F0008003F000800FF000000910000000D
:1005F000B6006D006D006D00DA00000048000000DC
:10060000B6004800B6002400E2001C001C008D006B
:1006100008000800FF00080071001C00C60055001B
:100620003800C600AA001C0008005F00080008008F
:10063000FF003F001F00DF0008001F00BF00080090
:10064000FF007F007F009F0073002E00FF00B900B5
:100650008B001700D0007300E7004500FF00A200E8
:100660008B007300E7005C00FF000000DA00000070
:1006700024000000DA000000B6006D00FF0000005A
:1006800000000000910048009F0000001F007F0054
:10069000FF001F0000005F0008000000BF001F00F7
:1006A000FF001F00DF003F00FF001F003F001F0092
:1006B0005F001F003F007F009F001F003F001F00E2
:1006C000DF00DF00BF00BF00DF0000003F000000D0
:1006D0005F000000DF001F00FF0000009F0000001F
:1006E0007F001F00BF001F00000000006D00000021
:1006F000DA000000B6004800080024009100240041
:10070000FF000800B6004800FF004800DA0024009F
:10071000DA00000091000000FF002400B600240071
:10072000B60000006D000000FF000000DF000000C8
:100730001F0008007F0000005F0000009F00000015
:100740005F003F00BF0000003300CC0000006600E7
:10075000FF007F000800B2001900E50000004C0017
:10076000CC00990033001900FF00E200FF00FF00F9
:10077000C6001C008D003800AA00380055001C007F
:10078000AA001C0071003800FF00330019004C0063
:100790000000000066000000CC00E5000000B20090
:1007A000000099007F000800B2007F009900CC0093
:1007B000FF00000019004C0066003300000000003C
:1007C000E50019001900CC00B2006600FF004C00E3
:1007D0007F004C00E5004C0099006600FF00190006
:1007E0007F003300CC003300FF001F003F003F00BC
:1007F0007F005F00BF003F00DF001F009F003F0041
:100800001F003F005F001F00080000005F003F0066
:10081000FF0000007F000000080000009F003F0074
:10082000FF00DF00BF001F004C001900FF007F0029
:1008300099003300CC0066004C003300E5007F00D7
:1008400099003300B2006600FF00D4003F000000B2
:100850006A00940055007F00BF001500E900000009
:100860001500AA0000002A00000000008D007100A1
:10087000FF00C600000038000000550038001C00D2
:10088000E2001C00AA003800FF00E700FF00D000D3
:100890008B005C0073005C00B90045002E002E0048
:1008A000A2001700D0002E00FF0000007F00000013
:1008B000000066000000E5000000B200CC0000006F
:1008C0004C0033009900190000007F000000000078
:1008D000FF00BF001F003F0000005F00000000009D
:1008E000DF0000001F009F00FF005500940055002E
:1008F0007F0055006A003F00D400AA00BF00AA0094
:1009000055002A00E9001500E500190066001900ED
:10091000CC0019004C000800FF000800330019004B
:10092000B200190099007F001C00C6003800380092
:10093000E2001C008D001C001C00AA001C001C0012
:10094000FF007100550055009F009F00FF003F0011
:100950009F009F00BF001F009F007F00FF001F003F
:100960009F007F00DF005F00FF000000000091009B
:1009700000000000DA00000048002400B60000007B
:100980006D0000004800000024006D000000080019
:10099000FF000000000048000000B6000000240036
:1009A000DA00000091000000AA007100FF0038008A
:1009B000AA008D00C6003800AA007100E2001C00E9
:1009C000AA007100C600550000000000CF8B000097
:1009D0009E1701006EA301003D2F02000CBB020018
:1009E000DC460300ABD203007B5E04004AEA04004D
:1009F00019760500E9010600B88D06008819070080
:100A000057A5070026310800F6BC0800C5480900B4
:100A100095D4090064600A0033EC0A0003780B00E7
:100A2000D2030C00A28F0C00711B0D0040A70D001B
:100A300010330E00DFBE0E00AF4A0F007ED60F004F
:100A40004D6210001DEE1000EC791100BC05120083
:100A50008B9112005A1D13002AA91300F9341400B7
:100A6000C8C01400984C150067D8150037641600EC
:100A700006F01600D57B1700A50718007493180020
:100A8000441F190013AB1900E2361A00B2C21A0053
:100A9000814E1B0051DA1B0020661C00EFF11C0088
:100AA000BF7D1D008E091E005E951E002D211F00BA
:100AB000FCAC1F00CC3820009BC420006B502100F0
:100AC0003ADC210009682200D9F32200A87F230024
:100AD000780B24004797240016232500E6AE250056
:100AE000B53A260084C626005452270023DE27008C
:100AF000F3692800C2F5280091812900610D2A00C0
:100B000030992A0000252B00CFB02B009E3C2C00F2
:100B10006EC82C003D542D000DE02D00DC6B2E0026
:100B2000ABF72E007B832F004A0F30001A9B30005A
:100B3000E9263100B8B23100883E320057CA32008F
:100B400027563300F6E13300C56D340095F93400C3
:100B50006485350034113600039D3600D2283700F5
:100B6000A2B437007140380040CC3800105839002A
:100B7000DFE33900AF6F3A007EFB3A004D873B0060
:100B80001D133C00EC9E3C00BC2A3D008BB63D0092
:100B90005A423E002ACE3E00F9593F00C9E53F00C7
:100BA0009871400067FD40003789410006154200FA
:100BB000D6A04200A52C430074B84300444444002E
:100BC00013D04400E35B4500B2E745008173460063
:100BD00051FF4600208B4700F0164800BFA2480096
:100BE0008E2E49005EBA49002D464A00FCD14A00CB
:100BF000CC5D4B009BE94B006B754C003A014D00FE
:100C0000098D4D00D9184E00A8A44E0078304F0031
:100C100047BC4F0016485000E6D35000B55F510066
:100C200085EB51005477520023035300F38E530099
:100C3000C21A540092A654006132550030BE5500CD
:100C4000004A5600CFD556009F6157006EED570001
:100C50003D7958000D055900DC905900AC1C5A0034
:100C60007BA85A004A345B001AC05B00E94B5C0069
:100C7000B9D75C0088635D0057EF5D00277B5E009D
:100C8000F6065F00C5925F00951E600064AA6000D2
:100C90003436610003C26100D24D6200A2D9620005
:100CA0007165630041F16300107D6400DF08650039
:100CB000AF9465007E2066004EAC66001D3867006C
:100CC000ECC36700BC4F68008BDB68005B676900A2
:100CD0002AF36900F97E6A00C90A6B0098966B00D6
:100CE00068226C0037AE6C00063A6D00D6C56D0008
:100CF000A5516E0075DD6E0044696F0013F56F003D
:100D0000E3807000B20C7100819871005124720070
:100D100020B07200F03B7300BFC773008E537400A5
:100D20005EDF74002D6B7500FDF67500CC827600D9
:100D30009B0E77006B9A77003A2678000AB278000B
:100D4000D93D7900A8C9790078557A0047E17A0041
:100D5000176D7B00E6F87B00B5847C0085107D0074
:100D6000549C7D0024287E00F3B37E00C23F7F00A8
:100D700092CB7F006157800031E38000006F8100DB
:100D8000CFFA81009F8682006E1283003D9E830011
:100D90000D2A8400DCB58400AC4185007BCD850044
:100DA0004A5986001AE58600E9708700B9FC870079
:100DB000888888005714890027A08900F62B8A00AC
:100DC000C6B78A0095438B0064CF8B00345B8C00E0
:100DD00003E78C00D3728D00A2FE8D00718A8E0015
:100DE00041168F0010A28F00E02D9000AFB9900047
:100DF0007E4591004ED191001D5D9200EDE892007C
:100E0000BC7493008B0094005B8C94002A189500AE
:100E1000F9A39500C92F960098BB960068479700E4
:100E200037D39700065F9800D6EA9800A576990018
:100E300075029A00448E9A00131A9B00E3A59B004A
:100E4000B2319C0082BD9C0051499D0020D59D007F
:100E5000F0609E00BFEC9E008F789F005E04A000B3
:100E60002D90A000FD1BA100CCA7A1009C33A200E7
:100E70006BBFA2003A4BA3000AD7A300D962A4001B
:100E8000A9EEA400787AA5004706A6001792A6004E
:100E9000E61DA700B5A9A7008535A80054C1A80084
:100EA000244DA900F3D8A900C264AA0092F0AA00B8
:100EB000617CAB003108AC000094AC00CF1FAD00EA
:100EC0009FABAD006E37AE003EC3AE000D4FAF001E
:100ED000DCDAAF00AC66B0007BF2B0004B7EB10054
:100EE0001A0AB200E995B200B921B30088ADB30087
:100EF0005839B40027C5B400F650B500C6DCB500BB
:100F00009568B60065F4B6003480B700030CB800ED
:100F1000D397B800A223B90072AFB900413BBA0021
:100F200010C7BA00E052BB00AFDEBB007E6ABC0057
:100F30004EF6BC001D82BD00ED0DBE00BC99BE008A
:100F40008B25BF005BB1BF002A3DC000FAC8C000BE
:100F5000C954C10098E0C100686CC20037F8C200F3
:100F60000784C300D60FC400A59BC4007527C50025
:100F700044B3C500143FC600E3CAC600B256C7005A
:100F800082E2C700516EC80021FAC800F085C9008E
:100F9000BF11CA008F9DCA005E29CB002EB5CB00C1
:100FA000FD40CC00CCCCCC009C58CD006BE4CD00F7
:100FB0003A70CE000AFCCE00D987CF00A913D0002A
:100FC000789FD000472BD10017B7D100E642D2005E
:100FD000B6CED200855AD30054E6D3002472D40092
:100FE000F3FDD400C389D5009215D60061A1D600C7
:100FF000312DD70000B9D700D044D8009FD0D800F9
:101000006E5CD9003EE8D9000D74DA00DDFFDA002D
:10101000AC8BDB007B17DC004BA3DC001A2FDD0060
:10102000EABADD00B946DE0088D2DE00585EDF0095
:1010300027EADF00F675E000C601E100958DE100CA
:101040006519E20034A5E2000331E300D3BCE300FC
:10105000A248E40072D4E4004160E50010ECE50031
:10106000E077E600AF03E7007F8FE7004E1BE80064
:101070001DA7E800ED32E900BCBEE9008C4AEA0099
:101080005BD6EA002A62EB00FAEDEB00C979EC00CE
:101090009905ED006891ED00371DEE0007A9EE00FF
:1010A000D634EF00A6C0EF00754CF00044D8F00035
:1010B0001464F100E3EFF100B27BF2008207F30069
:1010C0005193F300211FF400F0AAF400BF36F5009D
:1010D0008FC2F5005E4EF6002EDAF600FD65F700D1
:1010E000CCF1F7009C7DF8006B09F9003B95F90005
:1010F0000A21FA00D9ACFA00A938FB0078C4FB0039
:101100004850FC0017DCFC00E667FD00B6F3FD006C
:10111000857FFE00550BFF002497FF00F32200019E
:10112000C3AE0001923A010162C6010131520201CF
:1011300000DE0201D06903019FF503016F81040104
:101140003E0D05010D990501DD240601ACB0060137
:101150007B3C07014BC807011A540801EADF08016C
:10116000B96B090188F7090158830A01270F0B01A0
:10117000F79A0B01C6260C0195B20C01653E0D01D4
:1011800034CA0D0104560E01D3E10E01A26D0F0108
:1011900072F90F014185100111111101E09C11013B
:1011A000AF2812017FB412014E4013011ECC13016F
:1011B000ED571401BCE314018C6F15015BFB1501A5
:1011C0002B871601FA121701000000000000000032
:1011D000000000000000000000000000000000000F
:1011E00000000000000000000000000000000000FF
:1011F00000000000000000000000000000000000EF
:1012000000000000000000000100000001000000DC
:1012100001000000010000000100000001000000CA
:1012200001000000010000000100000001000000BA
:1012300001000000010000000100000001000000AA
:10124000010000000100000000000000000000009C
:10125000000000000000000000000000000000008E
:10126000000000000000000001000000010000007C
:10127000010000000100000001000000010000006A
:10128000010000000100000001000000010000005A
:10129000010000000100000001000000010000004A
:1012A0000100000001000000030000000300000036
:1012B0000300000003000000030000000300000022
:1012C0000300000003000000000000000000000018
:1012D000000000000000000000000000000000000E
:1012E00001000000010000000100000001000000FA
:1012F00001000000010000000100000001000000EA
:1013000001000000010000000500000005000000D1
:1013100005000000050000000500000005000000B9
:1013200005000000050000000500000005000000A9
:101330000700000007000000070000000700000091
:10134000070000000700000000000000000000008F
:10135000000000000000000001000000010000008B
:101360000100000001000000010000000100000079
:101370000100000001000000050000000500000061
:101380000500000005000000050000000500000049
:1013900005000000050000000D0000000D00000029
:1013A0000D0000000D0000000D0000000D00000009
:1013B0000D0000000D0000000F0000000F000000F5
:1013C0000F0000000F0000000000000000000000FF
:1013D000000000000000000001000000010000000B
:1013E00001000000010000000100000001000000F9
:1013F00009000000090000000900000009000000C9
:1014000009000000090000000D0000000D000000B0
:101410000D0000000D0000000D0000000D00000098
:101420001D0000001D0000001D0000001D00000048
:101430001D0000001D0000001F0000001F00000034
:101440001F0000001F00000000000000000000005E
:101450000000000001000000010000000100000089
:101460000100000001000000090000000900000068
:10147000090000000900000009000000150000003C
:101480001500000015000000150000001500000008
:10149000150000002D0000002D0000002D000000B0
:1014A0002D0000002D0000003D0000003D00000068
:1014B0003D0000003D0000003D0000003F00000036
:1014C0003F0000003F00000000000000000000009E
:1014D0000000000001000000010000000100000009
:1014E00001000000110000001100000011000000C8
:1014F0001100000011000000290000002900000078
:1015000029000000290000002D0000002D0000002F
:101510002D0000002D0000005D0000005D000000B7
:101520005D0000005D0000005D0000007D00000027
:101530007D0000007D0000007D0000007F000000B5
:101540007F0000007F00000000000000000000009D
:101550000100000001000000010000000100000087
:101560001100000011000000110000001100000037
:1015700029000000290000002900000029000000C7
:101580005500000055000000550000005500000007
:10159000AD000000AD000000AD000000AD00000097
:1015A000DD000000DD000000DD000000DD000000C7
:1015B000FD000000FD000000FD000000FD00000037
:1015C000FF000000FF00000000000000000000001D
:1015D0000100000001000000010000000100000007
:1015E000210000002100000021000000490000004F
:1015F000490000004900000049000000A900000067
:10160000A9000000A9000000AD000000AD0000002E
:10161000AD0000006D0100006D0100006D010000D3
:101620006D010000BD010000BD010000BD01000012
:10163000FD010000FD010000FD010000FD010000B2
:10164000FF010000FF01000000000000000000009A
:101650000100000001000000010000002100000066
:101660002100000021000000910000009100000016
:10167000910000002901000029010000290100005B
:101680005501000055010000550100005501000002
:10169000AD010000AD010000AD010000DD02000061
:1016A000DD020000DD020000BD030000BD030000FC
:1016B000BD030000FD030000FD030000FD0300006A
:1016C000FF030000FF030000000000000000000016
:1016D00001000000010000000100000041000000C6
:1016E0004100000041000000910000009100000056
:1016F000290100002901000029010000A9020000C1
:10170000A9020000A9020000AD020000AD02000025
:10171000AD020000AD050000AD050000AD05000004
:10172000DD060000DD0600007D0700007D070000EB
:101730007D070000FD070000FD070000FD07000019
:10174000FF070000FF07000000000000000000008D
:101750000100000001000000410000004100000005
:101760004100000011010000110100001101000002
:101770004902000049020000A9040000A904000079
:10178000A90400005505000055050000AD06000045
:10179000AD060000AD0600006D0B00006D0B0000F3
:1017A000DD0D0000DD0D0000DD0D00007D0F0000EF
:1017B0007D0F00007D0F0000FD0F0000FD0F0000F9
:1017C000FF0F0000FF0F00000000000000000000FD
:1017D0000100000001000000810000008100000005
:1017E00021020000210200002102000091040000FB
:1017F00091040000290900002909000029090000BE
:10180000A90A0000A90A0000AD0A0000AD0A000004
:10181000AD0D0000AD0D0000AD0D0000DD160000A7
:10182000DD160000BD1B0000BD1B0000BD1B00003D
:10183000FD1E0000FD1E0000FD1F0000FD1F00003A
:10184000FF1F0000FF1F000000000000000000005C
:101850000100000001000000810000008100000084
:101860002102000021020000910800009108000000
:10187000290900002909000029090000A914000015
:10188000A91400005515000055150000AD16000004
:10189000AD160000AD2D0000AD2D0000AD2D0000F7
:1018A000DD2E0000DD2E0000BD3B0000BD3B000032
:1018B000FD3E0000FD3E0000FD3F0000FD3F00003A
:1018C000FF3F0000FF3F000000000000000000009C
:1018D0000100000001000000010100000101000002
:1018E000210400002104000091080000910800007C
:1018F0004912000049120000292500002925000096
:10190000A92A0000A92A0000AD2A0000AD2A000083
:10191000AD350000AD3500006D5B00006D5B000073
:10192000DD6E0000DD6E0000BD770000BD770000B9
:10193000FD7D0000FD7D0000FD7F0000FD7F0000BB
:10194000FF7F0000FF7F000000000000010000009A
:101950000100000001010000010100004108000039
:101960004108000011110000111100009124000035
:10197000912400002929000029290000A952000013
:10198000A95200005555000055550000AD5A000001
:10199000AD5A0000ADAD0000ADAD0000DDB60000F9
:1019A000DDB60000DDDD0000DDDD00007DEF0000C4
:1019B0007DEF0000FDFD0000FDFD0000FDFF0000CB
:1019C000FDFF0000FFFF000000000000010000001C
:1019D00001000000010200000102000041080000B7
:1019E0004108000021220000212200009144000053
:1019F0009144000029490000A9940000A994000026
:101A0000A9AA0000A9AA0000ADAA0000ADAA000082
:101A1000ADD60000ADD60000AD6D0100DD76010051
:101A2000DD760100BDBB0100BDBB01007DEF010003
:101A30007DEF0100FDFB0100FDFB0100FDFF01004A
:101A4000FDFF0100FFFF0100000000000100000099
:101A5000010000000102000001020000411000002E
:101A60004110000021420000918800009188000090
:101A7000499200004992000029290100A952010061
:101A8000A95201005555010055550100AD5A0100FC
:101A9000AD5A0100ADAD01006DDB02006DDB02004F
:101AA000DDEE0200DDEE0200BD7B03007DDF030002
:101AB0007DDF0300FDFB0300FDFB0300FDFF0300D2
:101AC000FDFF0300FFFF0300000000000100000015
:101AD000010000000104000001040000812000005A
:101AE0002142000021420000918800009124010061
:101AF000912401002949010029490100A99402000B
:101B0000A9AA0200A9AA0200ADAA0200ADAA020079
:101B1000ADD60200AD6D0500AD6D0500DDB605006A
:101B2000DDB60500DDEE0600BD7B0700BD7B0700CE
:101B3000FDBE0700FDF70700FDF70700FDFF0700EA
:101B4000FDFF0700FFFF070000000000010000008C
:101B5000010000000104000081200000812000003D
:101B600021840000111101001111010091440200B3
:101B7000914402002949020029A5040029A5040076
:101B8000A94A05005555050055550500AD6A0500E3
:101B9000ADB50600ADB50600AD6D0B00DD760B00F2
:101BA000DD760B00DDDD0D00DDDD0D00BDF70E0087
:101BB000FDBE0F00FDBE0F00FDF70F00FDFF0F0083
:101BC000FDFF0F00FFFF0F000000000001000000FC
:101BD0000100000001080000814000008140000079
:101BE0004108010021220200212202009148040044
:101BF000499204004992040029290500A9540A00C9
:101C0000A9540A00A9AA0A00ADAA0A00AD560B0001
:101C1000AD560B00ADAD15006DDB16006DDB16008B
:101C2000DD6E1700BDBB1B00BDBB1B007DEF1D00A3
:101C3000FD7E1F00FD7E1F00FDEF1F00FDFF1F004A
:101C4000FDFF1F00FFFF1F0000000000010000005B
:101C500001000000010800000181000041080200AD
:101C600041080200212204009188040091880400A8
:101C70009124090029490900A9941200A99412008D
:101C8000A94A15005555150055551500AD6A1500A2
:101C9000ADD61A00ADD61A00AD6D2D00DDB62D0003
:101CA000DDEE3600DDEE3600BDBB37007DEF3B00DC
:101CB0007DEF3B00FDFD3E00FDEF3F00FDFF3F00DF
:101CC000FDFF3F00FFFF3F0000000000010000009B
:101CD0000100000001100000018100004108020025
:101CE0004108020021420800918808009124120056
:101CF000912412002949120029292500A9522900FE
:101D0000A9522900A9AA2A00ADAA2A00AD5A2D007D
:101D1000AD5A2D00ADAD3500AD6D5B00DDB65B009D
:101D2000DDB65B00DDEE6E00BD7B6F007DEF7B00FE
:101D30007DEF7B00FDFD7E00FDDF7F00FDFF7F006E
:101D4000FDFF7F00FFFF7F0000000000010000009A
:101D50000110000001100000010101004110040009
:101D60002142080021420800111111009144220073
:101D7000499224002929290029292900A9944A00E7
:101D8000A92A55005555550055555500ADAA550081
:101D9000ADD66A00ADADAD00ADADAD006DDBB6004A
:101DA000DD76BB00DDDDDD00BD7BEF00BD7BEF0040
:101DB0007DDFF700FDFDFD00FDDFFF00FDDFFF0023
:101DC000FDFFFF00FFFFFF0000000000010000001A
:101DD0000120000001200000010202008120080013
:101DE0002184100021222200212222009188440017
:101DF0009124490029494A0029A5940029A5940065
:101E0000A952A900A9AAAA00ADAAAA00AD5AAD007C
:101E1000ADB5D600ADB5D600AD6D6B01DDB66D01CB
:101E2000DDEE7601BDBBBB01BDBBBB01BDF7DE0175
:101E3000FDBEEF01FDFBFB01FDBFFF01FDBFFF018B
:101E4000FDFFFF01FFFFFF01000000000100000097
:101E500001200000010202000102020081201000A6
:101E600041082100212244009188480091249200D9
:101E7000912492002949920029292501A9944A0117
:101E8000A92A55015555550155555501ADAA55017C
:101E9000ADD66A01ADADB501AD6DDB02DDB6DB02DD
:101EA000DDB6DB02DDEE6E03BDBB77037DEFBD0368
:101EB000FDBEDF03FDFBFB03FDFBFB03FDBFFF03DB
:101EC000FDFFFF03FFFFFF03000000000100000013
:101ED0000140000001020400010204008120100002
:101EE00041084100214284009188880091442201E8
:101EF000499224012949490129494901A9945202D9
:101F0000A952A502A9AAAA02ADAAAA02AD5AB5026F
:101F1000ADD65A03AD6D6D05AD6D6D056DDBB605C6
:101F2000DD76BB05DDEEEE06BD7BF7067DEF7D07BA
:101F3000FDBEDF07FDFBF707FDFBF707FD7FFF0792
:101F4000FDFFFF07FFFFFF0700000000010000008A
:101F50000140000001040800814020004108820087
:101F60004108820021428800111111019148240288
:101F70009124490229494A022929A504A9542A057C
:101F8000A9AA54055555550555555505ADAA5605EB
:101F9000AD56AB05ADADB506AD6D6B0BDDB66D0BDE
:101FA000DD6EB70BDDDDDD0DBD7BEF0E7DEFFB0ED6
:101FB0007DEFFB0EFD7EBF0FFDF7EF0FFD7FFF0FE7
:101FC000FDFFFF0FFFFFFF0F0000000001000000FA
:101FD00001800000010408000181400041088200E6
:101FE0002142080121222202212222029188440258
:101FF000912491042949920429292505A99452097B
:10200000A94A950AA9AAAA0AADAAAA0AAD6AD50A36
:10201000ADD65A0DADADB515AD6DDB16DDB6DD1621
:10202000DDEE761BBDBBBB1BBDBBBB1BBD7BEF1D74
:102030007DEFFB1EFDFD7E1FFDF7EF1FFDFFFE1F69
:10204000FDFFFF1FFFFFFF1F000000000100000059
:102050000180000001041000018180004110040192
:1020600021841002212242049188480491441209DB
:10207000499224092949490929A59412A952A91468
:10208000A9AA54155555551555555515ADAA5615AA
:10209000AD5AAD16ADB5D61AAD6D6D2D6DDBB62D45
:1020A000DD76DB2DDDEE6E37BDBB7B37BDF7DE3B6E
:1020B0007DDFF73DFDFDFE3EFDF7DF3FFDFFFE3F0F
:1020C000FDFFFF3FFFFFFF3F000000000100000099
:1020D0000100010001082000018180008120080228
:1020E0004108210421224408918888089144221142
:1020F00091244912294952122929A524A9944A2533
:10210000A94A952AA9AAAA2AADAAAA2AAD6AD52AB5
:10211000ADD66A35ADADB536AD6D5B5BDDB66D5B2D
:10212000DD76BB5DDDEEEE6EBDBB776F7DEFBD771F
:10213000FDBEEF7BFDFDFE7EFDEFBF7FFDFFFD7F62
:10214000FDFFFF7FFFFFFF7F000000000100000098
:1021500001000100010820000101010181200804A3
:10216000410841082142881011111111918844221F
:10217000912491242949922429292929A994524A50
:10218000A952A952A9AA5255ADAA5A55AD5AAD5A4B
:10219000ADD65A6BADADADADAD6DDBB6DDB6DDB672
:1021A000DDEE76BBDDDDDDDDBD7BEFDE7DEF7DEFE2
:1021B000FDBEEFF7FDFDFDFDFDEFBFFFFDFFFDFFE8
:1021C000FDFFFFFFFFFFFFFF11241FBECFEFD8E091
:1021D000DEBFCDBF11E0A0E0B1E0E0EFFFE202C062
:1021E00005900D92AA33B107D9F721E0AAE3B1E037
:1021F00001C01D92AF38B207E1F70E94D8160C94C7
:102200006A170C9400009093560180935501FC01CD
:10221000EE0FFF1FEE0FFF1FE853F64F259135918C
:102220004591549161110FC0DA01C901B695A79586
:102230009795879580934D0190934E01A0934F0100
:10224000B09350010895623049F020934D013093CE
:102250004E0140934F01509350010895A3E0B0E028
:102260000E948F1760934D0170934E0180934F0130
:10227000909350010895282F649FC0014095249F9A
:102280004095800D911D1124892F089580910001A2
:10229000909101019C0121703327319521953109DD
:1022A0002227347B96958795822793279093010167
:1022B000809300010895A0E0B0E0E1E6F1E10C9424
:1022C000A317E22EC42ED12C96E0D594C7949A95EC
:1022D000E1F730E056E0359527955A95E1F7D601BC
:1022E000119689010F5F1F4F90E2699F800D1124A5
:1022F000C82FD0E055E05C9DC0015D9D900D11247C
:10230000FC01E20FF31FEE0FFF1FE95FFE4F01908C
:10231000F081E02DEC0FFD1FF4905A9F60015B9F50
:10232000D00C1124D601A20FB31FAA0FBB1FA95FA7
:10233000BE4FED91FC91EC0FFD1FB490FC01E00F3E
:10234000F11FEE0FFF1FE95FFE4F0190F081E02DBE
:10235000EC0FFD1F8491D601A00FB11FAA0FBB1F68
:10236000A95FBE4FED91FC91EC0FFD1F6491C42F4E
:10237000CC0FCC0F4C2F0E943B11D82F4C2F6B2D24
:102380008F2D0E943B114E2D440F440F6D2F0E9444
:102390003B11CDB7DEB7E9E00C94BF17A0E0B0E089
:1023A000E4EDF1E10C94A31780916901882381F099
:1023B00000915901B0905A018FE5C82E81E0D82EC6
:1023C0009CE5E92E91E0F92ED0E0C0E011E024C0B8
:1023D000CFE5D1E080917001811105C010915B01C2
:1023E0001695169501C010E00E944611209101013A
:1023F000219F112D1124199331E0C236D30751F7D3
:10240000D7CF8FEFF70191917F0190959817C8F082
:10241000110FDF5FD330F1F02B2D402F6D2F809106
:1024200069010E945B11F60191916F01482F50E004
:102430002FEF30E0291B31094217530714F7890F9A
:10244000E1CF813C08F0C12B80916301812B809307
:102450006301DECF80916D0120916301882371F0CB
:10246000C11102C080E001C088E0822B9091690117
:10247000992311F020E006C020E204C0F8E0CF9FCD
:10248000C0011124822B80936301CDB7DEB7E9E050
:102490000C94BF178F929F92AF92BF92CF92DF9210
:1024A000EF92FF92CF93DF938091690180FD6CC022
:1024B00050916301A9E5B1E0C4E6D1E08CE591E07B
:1024C00040E061E02D9130E0E3E035952795EA9515
:1024D000E1F771E0720F30E2239F90011124129610
:1024E000EC911297F0E0F595E795F595E795F59560
:1024F000E795E20FF31F2881271718F0271B288381
:10250000FACFEE0FFF1FEE0FFF1FE853FE4E859030
:102510009590A590B490C12CD12C7601C394022E35
:1025200004C0CC0CDD1CEE1CFF1C0A94D2F7C820A2
:10253000D920EA20FB20CD28CE28CF2809F0562B21
:10254000211101C0462B660F21968A179B0709F0BF
:10255000B9CF80916D01882381F0411102C090E0D4
:1025600001C098E0852F892B473011F090E001C021
:1025700090E2982B9093630107C028E0429FC0012E
:102580001124852B80936301DF91CF91FF90EF9011
:10259000DF90CF90BF90AF909F908F90089580E094
:1025A00090E00E94E01784FB992790F990936E01C8
:1025B00085FB992790F990936D0186FB992790F9F7
:1025C00090936C01982F9095991F9927991F90933C
:1025D0006F0183FB222720F991E0922790937001ED
:1025E0008770823008F082E080936B0181E090E098
:1025F0000E94E0178F5F80935801089560916B01EE
:1026000080917001811101C0686080916E0181111B
:10261000606180916D018111606280916C018130F7
:1026200009F4606480916F01811101C0606880E0ED
:1026300090E00E94E817809158018F5F853008F084
:1026400085E0809358016091580181E090E00E94FC
:10265000E817089510926301109262010E944611DA
:1026600080916301282F20648091000190910101E5
:1026700080789927822B8093630190916D01992333
:1026800019F080618093630180916A01811109C012
:1026900080916C01811103C00E944A1208950E942A
:1026A000CE11089580917001882321F080916C01F2
:1026B000813011F080E0089520915B013BE2239F7F
:1026C000812D11249091690191FF02C08195089597
:1026D000089580917A0086FDFCCF80914B01209176
:1026E000780090917900E82FF0E0EE0FFF1FE65C94
:1026F000FE4F30E0392B318320838F5F80934B0175
:1027000090914A01891710F010924B0180914B0172
:10271000877090910201892B80937C0080917A00D0
:10272000806480937A0008951092690110926A0182
:1027300083E0E4E6F1E0DF011D928A95E9F7089570
:10274000CF93C82F0E942A1390916901292F2770D7
:1027500081E009F080E08093670181E0911180E0E1
:102760008093680180916A018C0F409164013091DF
:10277000650120916601833048F0835090FF02C0CC
:102780009F5FF9CF4F5F3F5F2F5FFACF40936401A8
:10279000309365012093660180936A0190936901EB
:1027A000903218F0905290936901CF9108958091E2
:1027B0008701811119C080918901882339F08150E6
:1027C00080938901811102C010928A0180918A014F
:1027D00090916E01992319F09091670102C0909138
:1027E0006801992379F11DC0809187018430D9F067
:1027F00038F4823069F0833021F580916E011DC07C
:102800008630A1F0C0F08730E1F480916D0115C0F1
:1028100088E090E000906B0102C0959587950A943E
:10282000E2F781600FC08091700107C080916C0158
:10283000813039F404C080916F01882311F08FE05A
:1028400001C081E02BB130E1839FC0011124922FA0
:102850009F70892B8BB90895CF93DF93D9B1DF7027
:10286000D095E0916B01F0E0EC5FFE4FC08180916C
:10287000550190915601889728F48091570188233B
:1028800009F452C040914D0150914E0160914F01A9
:10289000709150018091510190915201A09153018A
:1028A000B0915401840F951FA61FB71F809351014B
:1028B00090935201A0935301B093540180918801E9
:1028C00020915401811105C02F772093540180E499
:1028D00010C0082E000C990BFC01E158FF4F30E0AE
:1028E000E217F30714F41092540180589F4F959506
:1028F000879580934C018091510190915201A09154
:102900005301B091540184179507A607B70708F043
:10291000C0E020914C01B21788F080916F018823AC
:1029200069F0109263010AC080918401D1FF28C030
:1029300081FD2DC08091C00087FD2BC0D2FF14C047
:102940008091840182FD10C00E94941380915801EF
:10295000853050F18091550190915601889720F56E
:1029600080915701811120C0D0938401CC2339F18B
:102970000E945213809388018C2F0E94A0131FC0C5
:1029800081FF05C080916F01811110926301C0E049
:10299000D1CF8091C600883F29F08A3F79F60E9406
:1029A0009413CCCFC1E0CACF0E942A1310925101D8
:1029B000109252011092530110925401D5CFDF9121
:1029C000CF91089580910301880F809303014B9B61
:1029D00003C0816080930301809103018E3F09F061
:1029E00059C080918701811150C080916E01811181
:1029F00013C00E94941380915801853008F45CC084
:102A00008091550190915601889708F055C08091AA
:102A10005701811151C039C020918B0130918C0137
:102A200040918D0150918E01A0ECB9E00E948F176A
:102A30009B01AC0160E07CE886E897E40E946D179A
:102A4000DA01C9014E97A109B109833C9140A10562
:102A5000B10588F460916B01C9010E9403111092C5
:102A6000510110925201109253011092540181E0D1
:102A70008093570102C01092570110928B0110925F
:102A80008C0110928D0110928E0110928301109290
:102A900082010895811119C0809182019091830172
:102AA00001969093830180938201843F914069F461
:102AB00081E0809386010895109251011092520195
:102AC0001092530110925401E0CF0895CF92DF92FB
:102AD000EF92FF920F931F93CF93809186018823EB
:102AE000F1F080918701811114C0EAE3F1E0A2E7DF
:102AF000B1E08AE491E0218132962C9311961C92E8
:102B0000119712968E179F07B1F781E08093870186
:102B100004C0109287010E94FE12109286018091DB
:102B20008701811133C0209147013CED239F812D06
:102B300011248C5E90E0209155013091560182174E
:102B4000930729F020915701222309F4BCC08091FA
:102B50003B0180958093590180913D018095809340
:102B60005A0180913F01809580935B0180914101E2
:102B7000809580935C0180914301809580935D01F5
:102B800080914501809580935E01A5C0FAE3EF2E08
:102B9000F1E0FF2EE2E7F1E0C0E0D70111968C9161
:102BA000B2E0EB0EF11C082F10E0808191819801BA
:102BB000281B390BC90137FF03C0919581959109F5
:102BC000DF0112966D0181970CF477C011830083A9
:102BD000C23009F464C0A8F4CC2309F451C0C13058
:102BE00009F06BC085E080938701C801880F892FA9
:102BF000881F990B919531E08327817080936F0135
:102C00005CC0C43069F190F0C53009F056C084E072
:102C100080938701C801880F892F881F990B919590
:102C2000B1E08B2781708093700147C082E0809370
:102C300087016FEF70E0601B710BE6E0759567959B
:102C4000EA95E1F7623008F062E060936B018091F1
:102C50005501909156010E9403110E9494132DC0BA
:102C600083E08093870181E098012078332707FD76
:102C700080E080936E01232B59F1109257011DC003
:102C800086E080938701C801880F892F881F990BE0
:102C9000919521E08227817080936C010EC087E0BE
:102CA00080938701C801880F892F881F990B919500
:102CB000A1E08A27817080936D01CF5FF601C83053
:102CC00009F06BCF08C060916B010E9403113FCFE8
:102CD000F601C5E062CFCF911F910F91FF90EF9069
:102CE000DF90CF9008952A9A0895259A239A2498E0
:102CF000229A0E947316229A0E9473168DB58E7FB7
:102D00008DBD8DB581608DBD80E58CBD0895CF935F
:102D1000DF937894C1ECD0E018828AB1806F8AB9D1
:102D20008AB1807F8AB98BB18F608BB962E088E706
:102D300090E00E94031110925701EAE7F0E08081D1
:102D40008760808380818068808310924B018091AE
:102D5000020180937C0080818064808387E080937F
:102D60004A0180E6809302010E94CF120E949413D0
:102D70000E947516E0ECF0E080818D7F80831092D8
:102D8000C50087E28093C40088818061888382E0E7
:102D90008093B00083E08093B1008DE48093B30012
:102DA000E0E7F0E0808182608083DF91CF91089539
:102DB00084B714BE80916000886180936000109297
:102DC00060000E94871660916B0188E790E00E9486
:102DD00003110E946615FDCF8091630190918501DA
:102DE000981709F1809385012A988EBD0DB407FECE
:102DF000FDCF0E94731680918501811104C088EC7B
:102E00008093890108959091630190FF02C088E04A
:102E100001C080E091FD846092FD826080938A0110
:102E2000109289010895089578941F920F920FB619
:102E30000F9211242F933F934F935F936F937F9340
:102E40008F939F93AF93BF93EF93FF9380918B01E9
:102E500090918C01A0918D01B0918E010196A11DE0
:102E6000B11D80938B0190938C01A0938D01B09341
:102E70008E01809171018F5F809371018A3020F003
:102E80000E94E214109271010E942C140E94691396
:102E9000809162018F5F80936201883030F0809171
:102EA0006F01811102C0109263010E94EC160E9412
:102EB000D713FF91EF91BF91AF919F918F917F9128
:102EC0006F915F914F913F912F910F900FBE0F9097
:102ED0001F901895F8940C94F617A1E21A2EAA1BCD
:102EE000BB1BFD010DC0AA1FBB1FEE1FFF1FA217BA
:102EF000B307E407F50720F0A21BB30BE40BF50BB7
:102F0000661F771F881F991F1A9469F7609570953F
:102F1000809590959B01AC01BD01CF0108950E9461
:102F2000D117A59F900DB49F900DA49F800D911D6A
:102F3000112408952F923F924F925F926F927F9249
:102F40008F929F92AF92BF92CF92DF92EF92FF92B9
:102F50000F931F93CF93DF93CDB7DEB7CA1BDB0B65
:102F60000FB6F894DEBF0FBECDBF09942A8839880A
:102F700048885F846E847D848C849B84AA84B98411
:102F8000C884DF80EE80FD800C811B81AA81B9811D
:102F9000CE0FD11D0FB6F894DEBF0FBECDBFED0131
:102FA0000895A29FB001B39FC001A39F700D811D22
:102FB0001124911DB29F700D811D1124911D089542
:102FC000F999FECF92BD81BDF89A992780B50895F1
:102FD000262FF999FECF1FBA92BD81BD20BD0FB635
:102FE000F894FA9AF99A0FBE01960895F894FFCFD3
:102FF000210040FF060301A8056806680908064885
:1030000005C803C8068804E8042807A8022804E8BD
:103010000788074808C800680388010809A80868E5
:0A3020000048020803E8012801003F
:00000001FF
